{
  "contractName": "CharityBazaar",
  "abi": [
    {
      "inputs": [],
      "stateMutability": "payable",
      "type": "constructor",
      "payable": true
    },
    {
      "inputs": [],
      "name": "_owner",
      "outputs": [
        {
          "internalType": "address payable",
          "name": "",
          "type": "address"
        }
      ],
      "stateMutability": "view",
      "type": "function",
      "constant": true
    },
    {
      "inputs": [
        {
          "internalType": "address",
          "name": "",
          "type": "address"
        }
      ],
      "name": "creditList",
      "outputs": [
        {
          "internalType": "bool",
          "name": "isUserExisted",
          "type": "bool"
        },
        {
          "internalType": "uint256",
          "name": "creditRest",
          "type": "uint256"
        }
      ],
      "stateMutability": "view",
      "type": "function",
      "constant": true
    },
    {
      "inputs": [],
      "name": "idCounter",
      "outputs": [
        {
          "internalType": "uint256",
          "name": "",
          "type": "uint256"
        }
      ],
      "stateMutability": "view",
      "type": "function",
      "constant": true
    },
    {
      "inputs": [],
      "name": "isAnyOrderPending",
      "outputs": [
        {
          "internalType": "bool",
          "name": "",
          "type": "bool"
        }
      ],
      "stateMutability": "view",
      "type": "function",
      "constant": true
    },
    {
      "inputs": [
        {
          "internalType": "uint256",
          "name": "",
          "type": "uint256"
        }
      ],
      "name": "itemHighestPrice",
      "outputs": [
        {
          "internalType": "address",
          "name": "",
          "type": "address"
        }
      ],
      "stateMutability": "view",
      "type": "function",
      "constant": true
    },
    {
      "inputs": [
        {
          "internalType": "uint256",
          "name": "",
          "type": "uint256"
        }
      ],
      "name": "itemList",
      "outputs": [
        {
          "internalType": "uint256",
          "name": "itemId",
          "type": "uint256"
        },
        {
          "internalType": "string",
          "name": "itemName",
          "type": "string"
        },
        {
          "internalType": "uint256",
          "name": "price",
          "type": "uint256"
        },
        {
          "internalType": "bool",
          "name": "isItemSold",
          "type": "bool"
        },
        {
          "internalType": "address",
          "name": "owner",
          "type": "address"
        }
      ],
      "stateMutability": "view",
      "type": "function",
      "constant": true
    },
    {
      "inputs": [],
      "name": "minimalDonateAmount",
      "outputs": [
        {
          "internalType": "uint256",
          "name": "",
          "type": "uint256"
        }
      ],
      "stateMutability": "view",
      "type": "function",
      "constant": true
    },
    {
      "inputs": [
        {
          "internalType": "address",
          "name": "",
          "type": "address"
        }
      ],
      "name": "orderList",
      "outputs": [
        {
          "internalType": "bool",
          "name": "isValidOrder",
          "type": "bool"
        },
        {
          "internalType": "uint256",
          "name": "itemID",
          "type": "uint256"
        },
        {
          "internalType": "uint256",
          "name": "price",
          "type": "uint256"
        },
        {
          "internalType": "bool",
          "name": "hasConfirmed",
          "type": "bool"
        }
      ],
      "stateMutability": "view",
      "type": "function",
      "constant": true
    },
    {
      "inputs": [
        {
          "internalType": "uint256",
          "name": "",
          "type": "uint256"
        }
      ],
      "name": "registeredUser",
      "outputs": [
        {
          "internalType": "address",
          "name": "",
          "type": "address"
        }
      ],
      "stateMutability": "view",
      "type": "function",
      "constant": true
    },
    {
      "inputs": [],
      "name": "userCounter",
      "outputs": [
        {
          "internalType": "uint256",
          "name": "",
          "type": "uint256"
        }
      ],
      "stateMutability": "view",
      "type": "function",
      "constant": true
    },
    {
      "stateMutability": "payable",
      "type": "receive",
      "payable": true
    },
    {
      "inputs": [
        {
          "internalType": "string",
          "name": "_itemName",
          "type": "string"
        },
        {
          "internalType": "uint256",
          "name": "_price",
          "type": "uint256"
        }
      ],
      "name": "createItem",
      "outputs": [],
      "stateMutability": "nonpayable",
      "type": "function"
    },
    {
      "inputs": [
        {
          "internalType": "uint256",
          "name": "_itemID",
          "type": "uint256"
        },
        {
          "internalType": "uint256",
          "name": "_bidPrice",
          "type": "uint256"
        }
      ],
      "name": "bidItem",
      "outputs": [],
      "stateMutability": "payable",
      "type": "function",
      "payable": true
    },
    {
      "inputs": [],
      "name": "cancelOrder",
      "outputs": [],
      "stateMutability": "payable",
      "type": "function",
      "payable": true
    },
    {
      "inputs": [],
      "name": "confirm",
      "outputs": [],
      "stateMutability": "payable",
      "type": "function",
      "payable": true
    },
    {
      "inputs": [
        {
          "internalType": "uint256",
          "name": "_donatePrice",
          "type": "uint256"
        }
      ],
      "name": "donate",
      "outputs": [],
      "stateMutability": "payable",
      "type": "function",
      "payable": true
    },
    {
      "inputs": [
        {
          "internalType": "address",
          "name": "userAddress",
          "type": "address"
        }
      ],
      "name": "checkFirstUser",
      "outputs": [],
      "stateMutability": "nonpayable",
      "type": "function"
    },
    {
      "inputs": [],
      "name": "withdraw",
      "outputs": [],
      "stateMutability": "nonpayable",
      "type": "function"
    },
    {
      "inputs": [],
      "name": "balanceOfUser",
      "outputs": [
        {
          "internalType": "uint256",
          "name": "",
          "type": "uint256"
        }
      ],
      "stateMutability": "view",
      "type": "function",
      "constant": true
    },
    {
      "inputs": [],
      "name": "balanceOfContract",
      "outputs": [
        {
          "internalType": "uint256",
          "name": "",
          "type": "uint256"
        }
      ],
      "stateMutability": "view",
      "type": "function",
      "constant": true
    },
    {
      "inputs": [],
      "name": "balanceOfOwner",
      "outputs": [
        {
          "internalType": "uint256",
          "name": "",
          "type": "uint256"
        }
      ],
      "stateMutability": "view",
      "type": "function",
      "constant": true
    }
  ],
  "bytecode": "0x6080604052600180556000600355670de0b6b3a76400006005556000600660006101000a81548160ff021916908315150217905550336000806101000a81548173ffffffffffffffffffffffffffffffffffffffff021916908373ffffffffffffffffffffffffffffffffffffffff160217905550612505806100836000396000f3fe6080604052600436106101235760003560e01c80638c551742116100a0578063e6c7c45611610064578063e6c7c456146105dd578063eb08ab2814610608578063f0c37a5914610633578063f14faf6f1461065e578063f8c257031461068c5761012a565b80638c55174214610402578063b26f728e146104d4578063b2bdfa7b14610539578063bd8be8d51461057a578063ddbbb648146105a55761012a565b80636868178b116100e75780636868178b146102f25780636a8165481461031f5780637022b58e146103295780637b989607146103335780637c08b4a0146103b15761012a565b8063354c658e1461012f5780633ccfd60b1461015a5780633ce69e0d146101715780633d4d3600146101df5780634975d202146102c75761012a565b3661012a57005b600080fd5b34801561013b57600080fd5b506101446106f1565b6040518082815260200191505060405180910390f35b34801561016657600080fd5b5061016f610710565b005b34801561017d57600080fd5b506101c06004803603602081101561019457600080fd5b81019080803573ffffffffffffffffffffffffffffffffffffffff16906020019092919050505061081d565b6040518083151581526020018281526020019250505060405180910390f35b3480156101eb57600080fd5b506102186004803603602081101561020257600080fd5b810190808035906020019092919050505061084e565b604051808681526020018060200185815260200184151581526020018373ffffffffffffffffffffffffffffffffffffffff168152602001828103825286818151815260200191508051906020019080838360005b8381101561028857808201518184015260208101905061026d565b50505050905090810190601f1680156102b55780820380516001836020036101000a031916815260200191505b50965050505050505060405180910390f35b3480156102d357600080fd5b506102dc610949565b6040518082815260200191505060405180910390f35b3480156102fe57600080fd5b50610307610989565b60405180821515815260200191505060405180910390f35b61032761099c565b005b610331610ccf565b005b34801561033f57600080fd5b506103826004803603602081101561035657600080fd5b81019080803573ffffffffffffffffffffffffffffffffffffffff1690602001909291905050506114f5565b604051808515158152602001848152602001838152602001821515815260200194505050505060405180910390f35b3480156103bd57600080fd5b50610400600480360360208110156103d457600080fd5b81019080803573ffffffffffffffffffffffffffffffffffffffff16906020019092919050505061153f565b005b34801561040e57600080fd5b506104d26004803603604081101561042557600080fd5b810190808035906020019064010000000081111561044257600080fd5b82018360208201111561045457600080fd5b8035906020019184600183028401116401000000008311171561047657600080fd5b91908080601f016020809104026020016040519081016040528093929190818152602001838380828437600081840152601f19601f820116905080830192505050505050509192919290803590602001909291905050506116ab565b005b3480156104e057600080fd5b5061050d600480360360208110156104f757600080fd5b81019080803590602001909291905050506119d6565b604051808273ffffffffffffffffffffffffffffffffffffffff16815260200191505060405180910390f35b34801561054557600080fd5b5061054e611a09565b604051808273ffffffffffffffffffffffffffffffffffffffff16815260200191505060405180910390f35b34801561058657600080fd5b5061058f611a2d565b6040518082815260200191505060405180910390f35b6105db600480360360408110156105bb57600080fd5b810190808035906020019092919080359060200190929190505050611a33565b005b3480156105e957600080fd5b506105f2612125565b6040518082815260200191505060405180910390f35b34801561061457600080fd5b5061061d61212d565b6040518082815260200191505060405180910390f35b34801561063f57600080fd5b50610648612133565b6040518082815260200191505060405180910390f35b61068a6004803603602081101561067457600080fd5b8101908080359060200190929190505050612139565b005b34801561069857600080fd5b506106c5600480360360208110156106af57600080fd5b8101908080359060200190929190505050612303565b604051808273ffffffffffffffffffffffffffffffffffffffff16815260200191505060405180910390f35b60003373ffffffffffffffffffffffffffffffffffffffff1631905090565b60008054906101000a900473ffffffffffffffffffffffffffffffffffffffff1673ffffffffffffffffffffffffffffffffffffffff163373ffffffffffffffffffffffffffffffffffffffff16146107b4576040517f08c379a00000000000000000000000000000000000000000000000000000000081526004018080602001828103825260278152602001806123ee6027913960400191505060405180910390fd5b60008054906101000a900473ffffffffffffffffffffffffffffffffffffffff1673ffffffffffffffffffffffffffffffffffffffff166108fc479081150290604051600060405180830381858888f1935050505015801561081a573d6000803e3d6000fd5b50565b60096020528060005260406000206000915090508060000160009054906101000a900460ff16908060010154905082565b6008602052806000526040600020600091509050806000015490806001018054600181600116156101000203166002900480601f0160208091040260200160405190810160405280929190818152602001828054600181600116156101000203166002900480156109005780601f106108d557610100808354040283529160200191610900565b820191906000526020600020905b8154815290600101906020018083116108e357829003601f168201915b5050505050908060020154908060030160009054906101000a900460ff16908060030160019054906101000a900473ffffffffffffffffffffffffffffffffffffffff16905085565b60008060009054906101000a900473ffffffffffffffffffffffffffffffffffffffff1673ffffffffffffffffffffffffffffffffffffffff1631905090565b600660009054906101000a900460ff1681565b600760003373ffffffffffffffffffffffffffffffffffffffff1673ffffffffffffffffffffffffffffffffffffffff1681526020019081526020016000206040518060800160405290816000820160009054906101000a900460ff1615151515815260200160018201548152602001600282015481526020016003820160009054906101000a900460ff1615151515815250506001151581600001511515148015610a5057506000151581606001511515145b610ac2576040517f08c379a00000000000000000000000000000000000000000000000000000000081526004018080602001828103825260108152602001807f4e6f206f726465722070656e64696e670000000000000000000000000000000081525060200191505060405180910390fd5b600033905060001515600760008373ffffffffffffffffffffffffffffffffffffffff1673ffffffffffffffffffffffffffffffffffffffff16815260200190815260200160002060030160009054906101000a900460ff16151514610b90576040517f08c379a000000000000000000000000000000000000000000000000000000000815260040180806020018281038252601f8152602001807f546865206f726465722068617320616c726561647920636f6e6669726d65640081525060200191505060405180910390fd5b6000600760008373ffffffffffffffffffffffffffffffffffffffff1673ffffffffffffffffffffffffffffffffffffffff16815260200190815260200160002060000160006101000a81548160ff0219169083151502179055506000600760008373ffffffffffffffffffffffffffffffffffffffff1673ffffffffffffffffffffffffffffffffffffffff1681526020019081526020016000206002015490508173ffffffffffffffffffffffffffffffffffffffff166108fc829081150290604051600060405180830381858888f19350505050158015610c78573d6000803e3d6000fd5b506001600960008473ffffffffffffffffffffffffffffffffffffffff1673ffffffffffffffffffffffffffffffffffffffff16815260200190815260200160002060010160008282540392505081905550505050565b60008054906101000a900473ffffffffffffffffffffffffffffffffffffffff1673ffffffffffffffffffffffffffffffffffffffff163373ffffffffffffffffffffffffffffffffffffffff1614610d73576040517f08c379a00000000000000000000000000000000000000000000000000000000081526004018080602001828103825260278152602001806123ee6027913960400191505060405180910390fd5b600660009054906101000a900460ff16610df5576040517f08c379a00000000000000000000000000000000000000000000000000000000081526004018080602001828103825260168152602001807f4e6f206f7264657220756e6465722070656e64696e670000000000000000000081525060200191505060405180910390fd5b600080600090806001815401808255809150506001900390600052602060002001600090919091909150556000600190505b6001548111611496578160009080600181540180825580915050600190039060005260206000200160009091909190915055600015156008600083815260200190815260200160002060030160009054906101000a900460ff16151514156114895760005b6002805490508110156112c557600060028281548110610ea857fe5b9060005260206000200160009054906101000a900473ffffffffffffffffffffffffffffffffffffffff1690506000600760008373ffffffffffffffffffffffffffffffffffffffff1673ffffffffffffffffffffffffffffffffffffffff1681526020019081526020016000206040518060800160405290816000820160009054906101000a900460ff1615151515815260200160018201548152602001600282015481526020016003820160009054906101000a900460ff16151515158152505090506001151581600001511515148015610f885750838160200151145b156112b657848481548110610f9957fe5b9060005260206000200154816040015111156111a75760008054906101000a900473ffffffffffffffffffffffffffffffffffffffff1673ffffffffffffffffffffffffffffffffffffffff166004600086815260200190815260200160002060009054906101000a900473ffffffffffffffffffffffffffffffffffffffff1673ffffffffffffffffffffffffffffffffffffffff1614611131576000600760006004600088815260200190815260200160002060009054906101000a900473ffffffffffffffffffffffffffffffffffffffff1673ffffffffffffffffffffffffffffffffffffffff1673ffffffffffffffffffffffffffffffffffffffff16815260200190815260200160002060020154905060006004600087815260200190815260200160002060009054906101000a900473ffffffffffffffffffffffffffffffffffffffff1690508073ffffffffffffffffffffffffffffffffffffffff166108fc839081150290604051600060405180830381858888f1935050505015801561112d573d6000803e3d6000fd5b5050505b816004600086815260200190815260200160002060006101000a81548173ffffffffffffffffffffffffffffffffffffffff021916908373ffffffffffffffffffffffffffffffffffffffff160217905550806040015185858154811061119457fe5b90600052602060002001819055506111ff565b60008160400151905060008390508073ffffffffffffffffffffffffffffffffffffffff166108fc839081150290604051600060405180830381858888f193505050501580156111fb573d6000803e3d6000fd5b5050505b6000600760008473ffffffffffffffffffffffffffffffffffffffff1673ffffffffffffffffffffffffffffffffffffffff16815260200190815260200160002060000160006101000a81548160ff0219169083151502179055506001600760008473ffffffffffffffffffffffffffffffffffffffff1673ffffffffffffffffffffffffffffffffffffffff16815260200190815260200160002060030160006101000a81548160ff0219169083151502179055505b50508080600101915050610e8c565b5060008054906101000a900473ffffffffffffffffffffffffffffffffffffffff1673ffffffffffffffffffffffffffffffffffffffff166004600083815260200190815260200160002060009054906101000a900473ffffffffffffffffffffffffffffffffffffffff1673ffffffffffffffffffffffffffffffffffffffff16146114885760016008600083815260200190815260200160002060030160006101000a81548160ff0219169083151502179055506004600082815260200190815260200160002060009054906101000a900473ffffffffffffffffffffffffffffffffffffffff166008600083815260200190815260200160002060030160016101000a81548173ffffffffffffffffffffffffffffffffffffffff021916908373ffffffffffffffffffffffffffffffffffffffff1602179055506001600960006004600085815260200190815260200160002060009054906101000a900473ffffffffffffffffffffffffffffffffffffffff1673ffffffffffffffffffffffffffffffffffffffff1673ffffffffffffffffffffffffffffffffffffffff168152602001908152602001600020600101600082825401925050819055505b5b8080600101915050610e27565b506000600660006101000a81548160ff021916908315150217905550336000806101000a81548173ffffffffffffffffffffffffffffffffffffffff021916908373ffffffffffffffffffffffffffffffffffffffff16021790555050565b60076020528060005260406000206000915090508060000160009054906101000a900460ff16908060010154908060020154908060030160009054906101000a900460ff16905084565b600081905060001515600960008373ffffffffffffffffffffffffffffffffffffffff1673ffffffffffffffffffffffffffffffffffffffff16815260200190815260200160002060000160009054906101000a900460ff16151514156116a7576002819080600181540180825580915050600190039060005260206000200160009091909190916101000a81548173ffffffffffffffffffffffffffffffffffffffff021916908373ffffffffffffffffffffffffffffffffffffffff1602179055506001600960008373ffffffffffffffffffffffffffffffffffffffff1673ffffffffffffffffffffffffffffffffffffffff16815260200190815260200160002060000160006101000a81548160ff0219169083151502179055506003600960008373ffffffffffffffffffffffffffffffffffffffff1673ffffffffffffffffffffffffffffffffffffffff168152602001908152602001600020600101819055505b5050565b60008054906101000a900473ffffffffffffffffffffffffffffffffffffffff1673ffffffffffffffffffffffffffffffffffffffff163373ffffffffffffffffffffffffffffffffffffffff161461174f576040517f08c379a00000000000000000000000000000000000000000000000000000000081526004018080602001828103825260278152602001806123ee6027913960400191505060405180910390fd5b6000825114156117c7576040517f08c379a000000000000000000000000000000000000000000000000000000000815260040180806020018281038252601a8152602001807f506c6561736520696e70757420746865206974656d206e616d6500000000000081525060200191505060405180910390fd5b6000811161183d576040517f08c379a000000000000000000000000000000000000000000000000000000000815260040180806020018281038252601a8152602001807f506c6561736520696e70757420612076616c696420707269636500000000000081525060200191505060405180910390fd5b816008600060015481526020019081526020016000206001019080519060200190611869929190612342565b508060086000600154815260200190815260200160002060020181905550600060086000600154815260200190815260200160002060030160006101000a81548160ff02191690831515021790555060008054906101000a900473ffffffffffffffffffffffffffffffffffffffff1660086000600154815260200190815260200160002060030160016101000a81548173ffffffffffffffffffffffffffffffffffffffff021916908373ffffffffffffffffffffffffffffffffffffffff1602179055506001546008600060015481526020019081526020016000206000018190555060008054906101000a900473ffffffffffffffffffffffffffffffffffffffff1660046000600154815260200190815260200160002060006101000a81548173ffffffffffffffffffffffffffffffffffffffff021916908373ffffffffffffffffffffffffffffffffffffffff160217905550600180600082825401925050819055505050565b60046020528060005260406000206000915054906101000a900473ffffffffffffffffffffffffffffffffffffffff1681565b60008054906101000a900473ffffffffffffffffffffffffffffffffffffffff1681565b60055481565b600760003373ffffffffffffffffffffffffffffffffffffffff1673ffffffffffffffffffffffffffffffffffffffff1681526020019081526020016000206040518060800160405290816000820160009054906101000a900460ff1615151515815260200160018201548152602001600282015481526020016003820160009054906101000a900460ff16151515158152505080600001511515816060015115151480611ae957506001151581606001511515145b611b5b576040517f08c379a00000000000000000000000000000000000000000000000000000000081526004018080602001828103825260128152602001807f4f72646572206e6f7420636f6d706c657465000000000000000000000000000081525060200191505060405180910390fd5b600860008481526020019081526020016000206040518060a001604052908160008201548152602001600182018054600181600116156101000203166002900480601f016020809104026020016040519081016040528092919081815260200182805460018160011615610100020316600290048015611c1c5780601f10611bf157610100808354040283529160200191611c1c565b820191906000526020600020905b815481529060010190602001808311611bff57829003601f168201915b50505050508152602001600282015481526020016003820160009054906101000a900460ff161515151581526020016003820160019054906101000a900473ffffffffffffffffffffffffffffffffffffffff1673ffffffffffffffffffffffffffffffffffffffff1673ffffffffffffffffffffffffffffffffffffffff1681525050806060015115611d18576040517f08c379a000000000000000000000000000000000000000000000000000000000815260040180806020018281038252601f8152602001807f546865206974656d2068617320616c7265616479206265656e20736f6c64200081525060200191505060405180910390fd5b6000839050600085118015611d2e575060015485105b611da0576040517f08c379a000000000000000000000000000000000000000000000000000000000815260040180806020018281038252601d8152602001807f506c6561736520696e70757420616e2076616c6964206974656d20494400000081525060200191505060405180910390fd5b6008600086815260200190815260200160002060020154811015611e0f576040517f08c379a000000000000000000000000000000000000000000000000000000000815260040180806020018281038252603781526020018061243d6037913960400191505060405180910390fd5b6000339050611e1d8161153f565b6000600960008373ffffffffffffffffffffffffffffffffffffffff1673ffffffffffffffffffffffffffffffffffffffff1681526020019081526020016000206001015411611eb8576040517f08c379a000000000000000000000000000000000000000000000000000000000815260040180806020018281038252605c815260200180612474605c913960600191505060405180910390fd5b81341015611f2e576040517f08c379a000000000000000000000000000000000000000000000000000000000815260040180806020018281038252601e8152602001807f596f752068617665206e6f74207061696420656e6f756768206574686572000081525060200191505060405180910390fd5b3073ffffffffffffffffffffffffffffffffffffffff166108fc839081150290604051600060405180830381858888f19350505050158015611f74573d6000803e3d6000fd5b508073ffffffffffffffffffffffffffffffffffffffff166108fc8334039081150290604051600060405180830381858888f19350505050158015611fbd573d6000803e3d6000fd5b506001600760008373ffffffffffffffffffffffffffffffffffffffff1673ffffffffffffffffffffffffffffffffffffffff16815260200190815260200160002060000160006101000a81548160ff02191690831515021790555085600760008373ffffffffffffffffffffffffffffffffffffffff1673ffffffffffffffffffffffffffffffffffffffff1681526020019081526020016000206001018190555084600760008373ffffffffffffffffffffffffffffffffffffffff1673ffffffffffffffffffffffffffffffffffffffff168152602001908152602001600020600201819055506000600760008373ffffffffffffffffffffffffffffffffffffffff1673ffffffffffffffffffffffffffffffffffffffff16815260200190815260200160002060030160006101000a81548160ff0219169083151502179055506001600660006101000a81548160ff021916908315150217905550505050505050565b600047905090565b60015481565b60035481565b6000819050600554811015612199576040517f08c379a00000000000000000000000000000000000000000000000000000000081526004018080602001828103825260288152602001806124156028913960400191505060405180910390fd5b60003390506121a78161153f565b8134101561221d576040517f08c379a000000000000000000000000000000000000000000000000000000000815260040180806020018281038252601e8152602001807f596f752068617665206e6f74207061696420656e6f756768206574686572000081525060200191505060405180910390fd5b3073ffffffffffffffffffffffffffffffffffffffff166108fc839081150290604051600060405180830381858888f19350505050158015612263573d6000803e3d6000fd5b508073ffffffffffffffffffffffffffffffffffffffff166108fc8334039081150290604051600060405180830381858888f193505050501580156122ac573d6000803e3d6000fd5b506001600960008373ffffffffffffffffffffffffffffffffffffffff1673ffffffffffffffffffffffffffffffffffffffff16815260200190815260200160002060010160008282540192505081905550505050565b6002818154811061231357600080fd5b906000526020600020016000915054906101000a900473ffffffffffffffffffffffffffffffffffffffff1681565b828054600181600116156101000203166002900490600052602060002090601f01602090048101928261237857600085556123bf565b82601f1061239157805160ff19168380011785556123bf565b828001600101855582156123bf579182015b828111156123be5782518255916020019190600101906123a3565b5b5090506123cc91906123d0565b5090565b5b808211156123e95760008160009055506001016123d1565b509056fe46756e6374696f6e2063616e206f6e6c792062652063616c6c20627920746865206f776e65722e506c6561736520646f6e617465206174206c65617374203120657468657220656163682074696d65596f752073686f756c64206f66666572206120707269636520686967686572207468616e207468652064656661756c7420707269636521596f7520646f206e6f74206861766520656e6f756768206372656469742c20796f752061726520616c726561647920696e2074686520626c61636b6c6973742120446f6e61746520746f206561726e20657874726120637265646974a2646970667358221220e04e59548ecd48880e3ea29b8dd372282e5e59381c3d2460ae8fc8deba219b9564736f6c63430007060033",
  "immutableReferences": {},
  "source": "// SPDX-License-Identifier: MIT\r\n// Author: Xiaoan Sun\r\n\r\npragma solidity ^0.7.6;\r\n\r\ncontract CharityBazaar{\r\n\r\n    // The owner is the charity\r\n    address payable public _owner;\r\n    // The item ID counter\r\n    uint public idCounter = 1;\r\n\r\n    // The registered User list\r\n    address[] public registeredUser;\r\n    uint public userCounter = 0;\r\n\r\n    // The highest price for each item\r\n    mapping (uint => address) public itemHighestPrice;\r\n\r\n    // The minimal donate amount\r\n    uint public minimalDonateAmount = 1 ether;\r\n\r\n    // Whether any order remains to be confirmed\r\n    bool public isAnyOrderPending = false;\r\n\r\n    constructor() payable{\r\n\r\n        _owner = msg.sender;\r\n\r\n    }\r\n\r\n    // The Item that waiting for auction\r\n    struct CharityItem{\r\n        uint itemId;\r\n        string itemName;\r\n        uint price;\r\n        bool isItemSold;\r\n        address owner;\r\n\r\n    }\r\n\r\n    // The order created by buyer\r\n    struct AuctionOrder{\r\n        bool isValidOrder;\r\n        uint itemID;\r\n        uint price;\r\n        bool hasConfirmed;\r\n\r\n    }\r\n\r\n    // The credit system\r\n    struct credit{\r\n        bool isUserExisted;\r\n        uint creditRest;\r\n    }\r\n\r\n    // order list\r\n    mapping (address=> AuctionOrder) public orderList;\r\n    // Item list\r\n    mapping (uint => CharityItem) public itemList;\r\n    // Credit list\r\n    mapping (address=> credit) public creditList;\r\n\r\n\r\n    // Used to make contract receive ether\r\n    receive() external payable {}\r\n\r\n    // The charity will create Item and release it to the market\r\n    function createItem(string memory _itemName, uint _price) public\r\n    onlyOwner(){\r\n        require(bytes(_itemName).length != 0,\"Please input the item name\");\r\n        require(_price > 0,\"Please input a valid price\");\r\n        itemList[idCounter].itemName = _itemName;\r\n        itemList[idCounter].price = _price;\r\n        itemList[idCounter].isItemSold = false;\r\n        itemList[idCounter].owner = _owner;\r\n        itemList[idCounter].itemId = idCounter;\r\n        itemHighestPrice[idCounter] = _owner;\r\n        idCounter += 1;\r\n\r\n    }\r\n\r\n    // Bid the item that is not sold\r\n    function bidItem(uint _itemID, uint _bidPrice) public payable\r\n    isOrderCompleted(orderList[msg.sender])\r\n    isItemSold(itemList[_itemID]){\r\n\r\n\r\n\r\n        uint givenPrice = _bidPrice;\r\n        require(_itemID >0 && _itemID < idCounter,\"Please input an valid item ID\");\r\n        require(givenPrice>= itemList[_itemID].price,\"You should offer a price higher than the default price!\");\r\n        address payable addressUser = msg.sender;\r\n\r\n        checkFirstUser(addressUser);\r\n\r\n        require(creditList[addressUser].creditRest > 0,\r\n            \"You do not have enough credit, you are already in the blacklist! Donate to earn extra credit\");\r\n\r\n        // Pay ether\r\n        require(msg.value >= givenPrice,\"You have not paid enough ether\");\r\n        address(this).transfer(givenPrice);\r\n        addressUser.transfer(msg.value - givenPrice);\r\n\r\n        // Create an order\r\n        orderList[addressUser].isValidOrder = true;\r\n        orderList[addressUser].itemID = _itemID;\r\n        orderList[addressUser].price = _bidPrice;\r\n        orderList[addressUser].hasConfirmed = false;\r\n\r\n        isAnyOrderPending = true;\r\n    }\r\n\r\n    // Buyer can cancel the order if the order has not been confirmed yet. This will cost 1 credit as punishment\r\n    function cancelOrder() public payable\r\n    isPending(orderList[msg.sender]){\r\n        address payable addressUser = msg.sender;\r\n        require(orderList[addressUser].hasConfirmed == false,\"The order has already confirmed\");\r\n        orderList[addressUser].isValidOrder = false;\r\n        uint refund = orderList[addressUser].price;\r\n        addressUser.transfer(refund);\r\n\r\n        // Decrease 1 credit as punishment\r\n        creditList[addressUser].creditRest -= 1;\r\n\r\n    }\r\n\r\n    // The charity will confirm the order to finish all existing deal\r\n    function confirm() public payable\r\n    onlyOwner(){\r\n        require (isAnyOrderPending,\"No order under pending\");\r\n\r\n        // Used to store the highest price\r\n        uint [] storage itemUnderBid;\r\n        itemUnderBid.push(0);\r\n        // Loop over each item\r\n        for (uint itemID = 1; itemID <= idCounter; itemID++){\r\n            itemUnderBid.push(0);\r\n            // Check if the item has already been sold\r\n            if(itemList[itemID].isItemSold == false){\r\n                // Loop over all existing user to check their order, find the highest bidding price for each item\r\n                for (uint j = 0; j < registeredUser.length; j++){\r\n                    // extract the order from mapping by the address\r\n                    address currentAddress = registeredUser[j];\r\n                    AuctionOrder memory order = orderList[currentAddress];\r\n                    // Check whether the order existing is valid and the item ID is matched\r\n                    if (order.isValidOrder == true && order.itemID == itemID){\r\n                        // If the price offered in the order is higher than the current highest price, record the new address and price\r\n                        if (order.price >  itemUnderBid[itemID]){\r\n                            // Refund the bidding to last highest user keeper\r\n                            if (itemHighestPrice[itemID] != _owner){\r\n                                uint refund = orderList[itemHighestPrice[itemID]].price;\r\n                                address payable addressRefund  = payable(address(itemHighestPrice[itemID]));\r\n                                addressRefund.transfer(refund);\r\n                            }\r\n                            itemHighestPrice[itemID] = currentAddress;\r\n                            itemUnderBid[itemID] = order.price;\r\n                        }\r\n                        // If the price fails to bid, refund the ether to the corresponding buyer;\r\n                        else {\r\n                            uint refund = order.price;\r\n                            address payable addressRefund  = payable(address(currentAddress));\r\n                            addressRefund.transfer(refund);\r\n                        }\r\n\r\n                        // Change the order state\r\n                        orderList[currentAddress].isValidOrder = false;\r\n                        orderList[currentAddress].hasConfirmed = true;\r\n                    }\r\n                }\r\n\r\n                // change the item state if there's any one succeed in bidding;\r\n                if (itemHighestPrice[itemID] != _owner){\r\n                    itemList[itemID].isItemSold = true;\r\n                    itemList[itemID].owner = itemHighestPrice[itemID];\r\n                    // Give one credit as reward\r\n                    creditList[itemHighestPrice[itemID]].creditRest += 1;\r\n                }\r\n            }\r\n        }\r\n        isAnyOrderPending = false;\r\n\r\n        // The _owner will change after confirm, the reason is still unknown\r\n        _owner = msg.sender;\r\n    }\r\n\r\n    function donate(uint _donatePrice) public payable{\r\n        uint givenPrice = _donatePrice;\r\n        require(givenPrice >= minimalDonateAmount,\"Please donate at least 1 ether each time\");\r\n        address payable addressUser = msg.sender;\r\n\r\n        checkFirstUser(addressUser);\r\n\r\n        // Pay ether\r\n        require(msg.value >= givenPrice,\"You have not paid enough ether\");\r\n        address(this).transfer(givenPrice);\r\n        addressUser.transfer(msg.value - givenPrice);\r\n        creditList[addressUser].creditRest += 1;\r\n    }\r\n\r\n\r\n    // Check if this is a new user. If it is, give the user 3 default credit;\r\n    function checkFirstUser(address userAddress) public{\r\n        address addressUser = userAddress;\r\n        if(creditList[addressUser].isUserExisted == false){\r\n            registeredUser.push(addressUser);\r\n            creditList[addressUser].isUserExisted = true;\r\n            creditList[addressUser].creditRest = 3;\r\n        }\r\n    }\r\n\r\n    function withdraw() external onlyOwner {\r\n        _owner.transfer(address(this).balance);\r\n    }\r\n\r\n    function balanceOfUser() public view returns (uint256) {\r\n        return msg.sender.balance;\r\n    }\r\n\r\n    function balanceOfContract() public view returns (uint256) {\r\n        return address(this).balance;\r\n    }\r\n\r\n    function balanceOfOwner() public view returns (uint256) {\r\n        return _owner.balance;\r\n    }\r\n\r\n    modifier onlyOwner {\r\n        require(msg.sender == _owner, \"Function can only be call by the owner.\");\r\n        _;\r\n    }\r\n\r\n    modifier isOrderCompleted (AuctionOrder memory order){\r\n        require(order.hasConfirmed == order.isValidOrder || order.hasConfirmed ==true,\r\n            \"Order not complete\");\r\n        _;\r\n    }\r\n\r\n    modifier isItemSold(CharityItem memory item){\r\n        require(!item.isItemSold,\"The item has already been sold \");\r\n        _;\r\n    }\r\n\r\n    modifier isPending(AuctionOrder memory order){\r\n        require(order.isValidOrder == true && order.hasConfirmed ==false, \"No order pending\");\r\n        _;\r\n    }\r\n\r\n}",
  "sourcePath": "/home/ubuntu/Desktop/charity_bazaar/src/contracts/charityBazaar.sol",
  "compiler": {
    "name": "solc",
    "version": "0.7.6+commit.7338295f.Emscripten.clang"
  },
  "schemaVersion": "3.3.4",
  "updatedAt": "2021-04-11T20:21:21.375Z",
  "networkType": "ethereum",
  "devdoc": {
    "kind": "dev",
    "methods": {},
    "version": 1
  },
  "userdoc": {
    "kind": "user",
    "methods": {},
    "version": 1
  }
}